{
  "contractName": "ItemManager",
  "abi": [
    {
      "anonymous": false,
      "inputs": [
        {
          "indexed": false,
          "internalType": "uint256",
          "name": "_itemIndex",
          "type": "uint256"
        },
        {
          "indexed": false,
          "internalType": "uint256",
          "name": "_step",
          "type": "uint256"
        }
      ],
      "name": "SupplyChainStep",
      "type": "event"
    },
    {
      "anonymous": false,
      "inputs": [
        {
          "indexed": false,
          "internalType": "uint256",
          "name": "_itemIndex",
          "type": "uint256"
        },
        {
          "indexed": false,
          "internalType": "uint256",
          "name": "_step",
          "type": "uint256"
        },
        {
          "indexed": false,
          "internalType": "address",
          "name": "_address",
          "type": "address"
        }
      ],
      "name": "SupplyChainStep",
      "type": "event"
    },
    {
      "inputs": [],
      "name": "isOwner",
      "outputs": [
        {
          "internalType": "bool",
          "name": "",
          "type": "bool"
        }
      ],
      "stateMutability": "view",
      "type": "function",
      "constant": true
    },
    {
      "inputs": [
        {
          "internalType": "uint256",
          "name": "",
          "type": "uint256"
        }
      ],
      "name": "items",
      "outputs": [
        {
          "internalType": "contract Item",
          "name": "_item",
          "type": "address"
        },
        {
          "internalType": "enum ItemManager.SuppyChainSteps",
          "name": "_step",
          "type": "uint8"
        },
        {
          "internalType": "string",
          "name": "_name",
          "type": "string"
        }
      ],
      "stateMutability": "view",
      "type": "function",
      "constant": true
    },
    {
      "inputs": [
        {
          "internalType": "string",
          "name": "_name",
          "type": "string"
        },
        {
          "internalType": "uint256",
          "name": "_priceInWei",
          "type": "uint256"
        }
      ],
      "name": "createItem",
      "outputs": [],
      "stateMutability": "nonpayable",
      "type": "function"
    },
    {
      "inputs": [
        {
          "internalType": "uint256",
          "name": "_index",
          "type": "uint256"
        }
      ],
      "name": "triggerPayment",
      "outputs": [],
      "stateMutability": "payable",
      "type": "function",
      "payable": true
    },
    {
      "inputs": [
        {
          "internalType": "uint256",
          "name": "_index",
          "type": "uint256"
        }
      ],
      "name": "triggerDelivery",
      "outputs": [],
      "stateMutability": "nonpayable",
      "type": "function"
    }
  ],
  "bytecode": "0x608060405234801561001057600080fd5b50336000806101000a81548173ffffffffffffffffffffffffffffffffffffffff021916908373ffffffffffffffffffffffffffffffffffffffff160217905550611956806100606000396000f3fe608060405260043610620000505760003560e01c8063800fb83f14620000555780638c55174214620000755780638f32d59b14620000a3578063bfb231d214620000d3578063cd31831e1462000119575b600080fd5b6200007360048036038101906200006d9190620009eb565b62000147565b005b3480156200008257600080fd5b50620000a160048036038101906200009b919062000b7f565b620003f8565b005b348015620000b057600080fd5b50620000bb620005cf565b604051620000ca919062000c02565b60405180910390f35b348015620000e057600080fd5b50620000ff6004803603810190620000f99190620009eb565b62000626565b604051620001109392919062000dbd565b60405180910390f35b3480156200012657600080fd5b506200014560048036038101906200013f9190620009eb565b6200070d565b005b60006001600083815260200190815260200160002060000160009054906101000a900473ffffffffffffffffffffffffffffffffffffffff1690503373ffffffffffffffffffffffffffffffffffffffff168173ffffffffffffffffffffffffffffffffffffffff1614620001f3576040517f08c379a0000000000000000000000000000000000000000000000000000000008152600401620001ea9062000e77565b60405180910390fd5b348173ffffffffffffffffffffffffffffffffffffffff16633c8da5886040518163ffffffff1660e01b8152600401602060405180830381865afa15801562000240573d6000803e3d6000fd5b505050506040513d601f19601f8201168201806040525081019062000266919062000eb0565b14620002a9576040517f08c379a0000000000000000000000000000000000000000000000000000000008152600401620002a09062000f32565b60405180910390fd5b60006002811115620002c057620002bf62000caa565b5b6001600084815260200190815260200160002060000160149054906101000a900460ff166002811115620002f957620002f862000caa565b5b146200033c576040517f08c379a0000000000000000000000000000000000000000000000000000000008152600401620003339062000fca565b60405180910390fd5b6001806000600254815260200190815260200160002060000160146101000a81548160ff021916908360028111156200037a576200037962000caa565b5b02179055507fa4035636e99f06b7651a604c1019fa4e8779fe68ef27eeb74dff2de348f6199b826001600085815260200190815260200160002060000160149054906101000a900460ff166002811115620003da57620003d962000caa565b5b83604051620003ec9392919062001022565b60405180910390a15050565b62000402620005cf565b62000444576040517f08c379a00000000000000000000000000000000000000000000000000000000081526004016200043b90620010af565b60405180910390fd5b600030826002546040516200045990620008de565b62000467939291906200110a565b604051809103906000f08015801562000484573d6000803e3d6000fd5b5090508060016000600254815260200190815260200160002060000160006101000a81548173ffffffffffffffffffffffffffffffffffffffff021916908373ffffffffffffffffffffffffffffffffffffffff160217905550600060016000600254815260200190815260200160002060000160146101000a81548160ff021916908360028111156200051d576200051c62000caa565b5b021790555082600160006002548152602001908152602001600020600101908051906020019062000550929190620008ec565b507fa4035636e99f06b7651a604c1019fa4e8779fe68ef27eeb74dff2de348f6199b60025460016000600254815260200190815260200160002060000160149054906101000a900460ff166002811115620005b057620005af62000caa565b5b83604051620005c29392919062001022565b60405180910390a1505050565b60008060009054906101000a900473ffffffffffffffffffffffffffffffffffffffff1673ffffffffffffffffffffffffffffffffffffffff163373ffffffffffffffffffffffffffffffffffffffff1614905090565b60016020528060005260406000206000915090508060000160009054906101000a900473ffffffffffffffffffffffffffffffffffffffff16908060000160149054906101000a900460ff1690806001018054620006849062001176565b80601f0160208091040260200160405190810160405280929190818152602001828054620006b29062001176565b8015620007035780601f10620006d75761010080835404028352916020019162000703565b820191906000526020600020905b815481529060010190602001808311620006e557829003601f168201915b5050505050905083565b62000717620005cf565b62000759576040517f08c379a00000000000000000000000000000000000000000000000000000000081526004016200075090620010af565b60405180910390fd5b6001600281111562000770576200076f62000caa565b5b6001600083815260200190815260200160002060000160149054906101000a900460ff166002811115620007a957620007a862000caa565b5b14620007ec576040517f08c379a0000000000000000000000000000000000000000000000000000000008152600401620007e39062000fca565b60405180910390fd5b600260016000600254815260200190815260200160002060000160146101000a81548160ff021916908360028111156200082b576200082a62000caa565b5b02179055507fa4035636e99f06b7651a604c1019fa4e8779fe68ef27eeb74dff2de348f6199b816001600084815260200190815260200160002060000160149054906101000a900460ff1660028111156200088b576200088a62000caa565b5b6001600085815260200190815260200160002060000160009054906101000a900473ffffffffffffffffffffffffffffffffffffffff16604051620008d39392919062001022565b60405180910390a150565b61077480620011ad83390190565b828054620008fa9062001176565b90600052602060002090601f0160209004810192826200091e57600085556200096a565b82601f106200093957805160ff19168380011785556200096a565b828001600101855582156200096a579182015b82811115620009695782518255916020019190600101906200094c565b5b5090506200097991906200097d565b5090565b5b80821115620009985760008160009055506001016200097e565b5090565b6000604051905090565b600080fd5b600080fd5b6000819050919050565b620009c581620009b0565b8114620009d157600080fd5b50565b600081359050620009e581620009ba565b92915050565b60006020828403121562000a045762000a03620009a6565b5b600062000a1484828501620009d4565b91505092915050565b600080fd5b600080fd5b6000601f19601f8301169050919050565b7f4e487b7100000000000000000000000000000000000000000000000000000000600052604160045260246000fd5b62000a728262000a27565b810181811067ffffffffffffffff8211171562000a945762000a9362000a38565b5b80604052505050565b600062000aa96200099c565b905062000ab7828262000a67565b919050565b600067ffffffffffffffff82111562000ada5762000ad962000a38565b5b62000ae58262000a27565b9050602081019050919050565b82818337600083830152505050565b600062000b1862000b128462000abc565b62000a9d565b90508281526020810184848401111562000b375762000b3662000a22565b5b62000b4484828562000af2565b509392505050565b600082601f83011262000b645762000b6362000a1d565b5b813562000b7684826020860162000b01565b91505092915050565b6000806040838503121562000b995762000b98620009a6565b5b600083013567ffffffffffffffff81111562000bba5762000bb9620009ab565b5b62000bc88582860162000b4c565b925050602062000bdb85828601620009d4565b9150509250929050565b60008115159050919050565b62000bfc8162000be5565b82525050565b600060208201905062000c19600083018462000bf1565b92915050565b600073ffffffffffffffffffffffffffffffffffffffff82169050919050565b6000819050919050565b600062000c6a62000c6462000c5e8462000c1f565b62000c3f565b62000c1f565b9050919050565b600062000c7e8262000c49565b9050919050565b600062000c928262000c71565b9050919050565b62000ca48162000c85565b82525050565b7f4e487b7100000000000000000000000000000000000000000000000000000000600052602160045260246000fd5b6003811062000ced5762000cec62000caa565b5b50565b600081905062000d008262000cd9565b919050565b600062000d128262000cf0565b9050919050565b62000d248162000d05565b82525050565b600081519050919050565b600082825260208201905092915050565b60005b8381101562000d6657808201518184015260208101905062000d49565b8381111562000d76576000848401525b50505050565b600062000d898262000d2a565b62000d95818562000d35565b935062000da781856020860162000d46565b62000db28162000a27565b840191505092915050565b600060608201905062000dd4600083018662000c99565b62000de3602083018562000d19565b818103604083015262000df7818462000d7c565b9050949350505050565b7f4f6e6c79206974656d732061726520616c6c6f77656420746f2075706461746560008201527f207468656d73656c766573000000000000000000000000000000000000000000602082015250565b600062000e5f602b8362000d35565b915062000e6c8262000e01565b604082019050919050565b6000602082019050818103600083015262000e928162000e50565b9050919050565b60008151905062000eaa81620009ba565b92915050565b60006020828403121562000ec95762000ec8620009a6565b5b600062000ed98482850162000e99565b91505092915050565b7f4e6f742066756c6c792070616964207965740000000000000000000000000000600082015250565b600062000f1a60128362000d35565b915062000f278262000ee2565b602082019050919050565b6000602082019050818103600083015262000f4d8162000f0b565b9050919050565b7f4974656d206973206675727468657220696e2074686520737570706c7920636860008201527f61696e0000000000000000000000000000000000000000000000000000000000602082015250565b600062000fb260238362000d35565b915062000fbf8262000f54565b604082019050919050565b6000602082019050818103600083015262000fe58162000fa3565b9050919050565b62000ff781620009b0565b82525050565b60006200100a8262000c1f565b9050919050565b6200101c8162000ffd565b82525050565b600060608201905062001039600083018662000fec565b62001048602083018562000fec565b62001057604083018462001011565b949350505050565b7f43616c6c6572206973206e6f7420746865204f776e6572210000000000000000600082015250565b60006200109760188362000d35565b9150620010a4826200105f565b602082019050919050565b60006020820190508181036000830152620010ca8162001088565b9050919050565b6000620010de8262000c49565b9050919050565b6000620010f282620010d1565b9050919050565b6200110481620010e5565b82525050565b6000606082019050620011216000830186620010f9565b62001130602083018562000fec565b6200113f604083018462000fec565b949350505050565b7f4e487b7100000000000000000000000000000000000000000000000000000000600052602260045260246000fd5b600060028204905060018216806200118f57607f821691505b60208210811415620011a657620011a562001147565b5b5091905056fe608060405234801561001057600080fd5b5060405161077438038061077483398181016040528101906100329190610134565b816000819055508060028190555082600360006101000a81548173ffffffffffffffffffffffffffffffffffffffff021916908373ffffffffffffffffffffffffffffffffffffffff160217905550505050610187565b600080fd5b600073ffffffffffffffffffffffffffffffffffffffff82169050919050565b60006100b98261008e565b9050919050565b60006100cb826100ae565b9050919050565b6100db816100c0565b81146100e657600080fd5b50565b6000815190506100f8816100d2565b92915050565b6000819050919050565b610111816100fe565b811461011c57600080fd5b50565b60008151905061012e81610108565b92915050565b60008060006060848603121561014d5761014c610089565b5b600061015b868287016100e9565b935050602061016c8682870161011f565b925050604061017d8682870161011f565b9150509250925092565b6105de806101966000396000f3fe6080604052600436106100385760003560e01c80632986c0e5146102505780633c8da5881461027b57806383d12eef146102a657610241565b36610241576000543414610081576040517f08c379a000000000000000000000000000000000000000000000000000000000815260040161007890610366565b60405180910390fd5b6000600154146100c6576040517f08c379a00000000000000000000000000000000000000000000000000000000081526004016100bd906103d2565b60405180910390fd5b34600160008282546100d8919061042b565b925050819055506000600360009054906101000a900473ffffffffffffffffffffffffffffffffffffffff1673ffffffffffffffffffffffffffffffffffffffff163460025460405160240161012e9190610490565b6040516020818303038152906040527f800fb83f000000000000000000000000000000000000000000000000000000007bffffffffffffffffffffffffffffffffffffffffffffffffffffffff19166020820180517bffffffffffffffffffffffffffffffffffffffffffffffffffffffff83818316178352505050506040516101b89190610525565b60006040518083038185875af1925050503d80600081146101f5576040519150601f19603f3d011682016040523d82523d6000602084013e6101fa565b606091505b505090508061023e576040517f08c379a000000000000000000000000000000000000000000000000000000000815260040161023590610588565b60405180910390fd5b50005b34801561024d57600080fd5b50005b34801561025c57600080fd5b506102656102d1565b6040516102729190610490565b60405180910390f35b34801561028757600080fd5b506102906102d7565b60405161029d9190610490565b60405180910390f35b3480156102b257600080fd5b506102bb6102dd565b6040516102c89190610490565b60405180910390f35b60025481565b60005481565b60015481565b600082825260208201905092915050565b7f576520646f6e277420737570706f7274207061727469616c207061796d656e7460008201527f7300000000000000000000000000000000000000000000000000000000000000602082015250565b60006103506021836102e3565b915061035b826102f4565b604082019050919050565b6000602082019050818103600083015261037f81610343565b9050919050565b7f4974656d20697320616c72656164792070616964210000000000000000000000600082015250565b60006103bc6015836102e3565b91506103c782610386565b602082019050919050565b600060208201905081810360008301526103eb816103af565b9050919050565b6000819050919050565b7f4e487b7100000000000000000000000000000000000000000000000000000000600052601160045260246000fd5b6000610436826103f2565b9150610441836103f2565b9250827fffffffffffffffffffffffffffffffffffffffffffffffffffffffffffffffff03821115610476576104756103fc565b5b828201905092915050565b61048a816103f2565b82525050565b60006020820190506104a56000830184610481565b92915050565b600081519050919050565b600081905092915050565b60005b838110156104df5780820151818401526020810190506104c4565b838111156104ee576000848401525b50505050565b60006104ff826104ab565b61050981856104b6565b93506105198185602086016104c1565b80840191505092915050565b600061053182846104f4565b915081905092915050565b7f44656c697665727920646964206e6f7420776f726b0000000000000000000000600082015250565b60006105726015836102e3565b915061057d8261053c565b602082019050919050565b600060208201905081810360008301526105a181610565565b905091905056fea26469706673582212209902ccd43d1b3acd8a43c0cd74cfb3132d1b8096ee6dea0e046fdbe2adf7b9bc64736f6c634300080a0033a26469706673582212205b534e690a28a88793e48712a2aa42ef71fb69e31c7422b561c5ed52d08743e264736f6c634300080a0033",
  "immutableReferences": {},
  "source": "// SPDX-License-Identifier: MIT\r\npragma solidity ^0.8.0;\r\n\r\nimport './Item.sol';\r\nimport \"./Ownable.sol\";\r\n\r\ncontract ItemManager is Ownable{\r\n    enum SuppyChainSteps {Created, Paid, Delivered}\r\n    \r\n    struct S_Item {\r\n        Item _item;\r\n        ItemManager.SuppyChainSteps _step;\r\n        string _name;\r\n    \r\n    }\r\n    mapping(uint => S_Item) public items;\r\n    uint index;\r\n\r\n    event SupplyChainStep(uint _itemIndex, uint _step);\r\n    event SupplyChainStep(uint _itemIndex, uint _step, address _address);\r\n\r\n    function createItem(string memory _name, uint _priceInWei) public onlyOwner {\r\n        Item item = new Item(this, _priceInWei, index);\r\n        items[index]._item = item;\r\n        items[index]._step= SuppyChainSteps.Created;\r\n        items[index]._name = _name;\r\n        emit SupplyChainStep(index, uint(items[index]._step), address(item));\r\n    }\r\n\r\n    function triggerPayment(uint _index) public payable {\r\n        Item item = items[_index]._item;\r\n        require(address(item) == msg.sender, \"Only items are allowed to update themselves\");\r\n        require(item.priceInWei() == msg.value, \"Not fully paid yet\");\r\n        require(items[_index]._step == SuppyChainSteps.Created, \"Item is further in the supply chain\");\r\n        items[index]._step= SuppyChainSteps.Paid;\r\n        emit SupplyChainStep(_index, uint(items[_index]._step), address(item));\r\n    }\r\n\r\n    function triggerDelivery(uint _index) public onlyOwner {\r\n        require(items[_index]._step == SuppyChainSteps.Paid, \"Item is further in the supply chain\");\r\n        items[index]._step= SuppyChainSteps.Delivered;\r\n        emit SupplyChainStep(_index, uint(items[_index]._step), address(items[_index]._item));\r\n    }    \r\n\r\n}",
  "sourcePath": "F:\\Users\\hrish\\web3\\solidityprojects\\Udemy_projects\\2. Supply_chain_project\\EVENT_TRIGGER\\contracts\\ItemManager.sol",
  "compiler": {
    "name": "solc",
    "version": "0.8.10+commit.fc410830.Emscripten.clang"
  },
  "schemaVersion": "3.4.4",
  "updatedAt": "2021-12-19T17:02:46.511Z",
  "networkType": "ethereum",
  "devdoc": {
    "kind": "dev",
    "methods": {},
    "version": 1
  },
  "userdoc": {
    "kind": "user",
    "methods": {},
    "version": 1
  }
}